:020000040800F2
:1000000000000220F5780008DD510008DF510008EB
:10001000E1510008E3510008E5510008000000002C
:10002000000000000000000000000000E751000890
:10003000E951000800000000EB510008ED510008F4
:100040004579000845790008457900084579000898
:100050004579000845790008457900084579000888
:100060004579000845790008457900084579000878
:100070004579000845790008457900084579000868
:100080004579000845790008457900084579000858
:100090004579000845790008457900084579000848
:1000A00045790008F55100084579000845790008B0
:1000B0004579000845790008457900084579000828
:1000C0004579000845790008457900084579000818
:1000D000457900080552000845790008457900086F
:1000E00045790008457900084579000845790008F8
:1000F00045790008457900084579000845790008E8
:1001000045790008457900084579000845790008D7
:1001100045790008457900084579000845790008C7
:1001200045790008457900084579000845790008B7
:1001300045790008457900084579000845790008A7
:100140004579000845790008457900084579000897
:100150004579000845790008457900084579000887
:100160004579000845790008457900084579000877
:10017000457900084579000845790008000000002D
:080180004579000845790008EB
:1002000010B5054C237833B9044B13B10448AFF350
:1002100000800123237010BD70000020000000004A
:10022000808A000808B5034B1BB103490348AFF3AC
:10023000008008BD0000000074000020808A0008D3
:100240002DE9FC4F41F6016B41F6FF574FF6FF7A5F
:10025000C0F2030A47F6040900F5807231F8028BF8
:100260004FF08003168808FB06F606FB07F404EA45
:100270000A0404FB0B664FEA9646048804EB090562
:100280003444A5EB06054FEA553606FB1B5522F80C
:10029000025B20F8024B013BE4D1A0F5807000F135
:1002A000800231F8028B4FF04003168808FB06F6F7
:1002B00006FB07F404EA0A0404FB0B664FEA9646C1
:1002C000048804EB09053444A5EB06054FEA5536CE
:1002D00006FB1B5522F8025B4FEA543505FB1B4415
:1002E00020F8024B013BE0D100F1800000F18002D8
:1002F00031F8028B4FF04003168808FB06F606FB28
:1003000007F404EA0A0404FB0B664FEA96460488E5
:1003100004EB09053444A5EB06054FEA553606FB08
:100320001B5522F8025B4FEA543505FB1B4420F8AD
:10033000024B013BE0D1A0F5C07000F1400231F862
:10034000028B4FF02003168808FB06F606FB07F425
:1003500004EA0A0404FB0B664FEA9646048804EBA1
:1003600009053444A5EB06054FEA553606FB1B5537
:1003700022F8025B20F8024B013BE4D100F140007F
:1003800000F1400231F8028B4FF02003168808FB81
:1003900006F606FB07F404EA0A0404FB0B664FEAC0
:1003A0009646048804EB09053444A5EB06054FEA9C
:1003B000553606FB1B5522F8025B20F8024B013B29
:1003C000E4D100F1400000F1400231F8028B4FF01F
:1003D0002003168808FB06F606FB07F404EA0A0465
:1003E00004FB0B664FEA9646048804EB0905344487
:1003F000A5EB06054FEA553606FB1B5522F8025BB6
:1004000020F8024B013BE4D100F1400000F1400232
:1004100031F8028B4FF02003168808FB06F606FB26
:1004200007F404EA0A0404FB0B664FEA96460488C4
:1004300004EB09053444A5EB06054FEA553606FBE7
:100440001B5522F8025B20F8024B013BE4D1A0F5DA
:10045000E07000F1200331F8028B4FF010021E888B
:1004600008FB06F606FB07F404EA0A0404FB0B6625
:100470004FEA9646048804EB09053444A5EB0605CB
:100480004FEA553606FB1B5523F8025B4FEA5435FD
:1004900005FB1B4420F8024B013AE0D100F120009B
:1004A00000F1200331F8028B4FF010021E8808FB88
:1004B00006F606FB07F404EA0A0404FB0B664FEA9F
:1004C0009646048804EB09053444A5EB06054FEA7B
:1004D000553606FB1B5523F8025B4FEA543505FBE6
:1004E0001B4420F8024B013AE0D100F1200000F15A
:1004F000200331F8028B4FF010021E8808FB06F62D
:1005000006FB07F404EA0A0404FB0B664FEA96466E
:10051000048804EB09053444A5EB06054FEA55367B
:1005200006FB1B5523F8025B4FEA543505FB1B44C1
:1005300020F8024B013AE0D100F1200000F1200345
:1005400031F8028B4FF010021E8808FB06F606FBFE
:1005500007F404EA0A0404FB0B664FEA9646048893
:1005600004EB09053444A5EB06054FEA553606FBB6
:100570001B5523F8025B4FEA543505FB1B4420F85A
:10058000024B013AE0D100F1200000F1200331F8E4
:10059000028B4FF010021E8808FB06F606FB07F4DC
:1005A00004EA0A0404FB0B664FEA9646048804EB4F
:1005B00009053444A5EB06054FEA553606FB1B55E5
:1005C00023F8025B4FEA543505FB1B4420F8024B2D
:1005D000013AE0D100F1200000F1200331F8028B54
:1005E0004FF010021E8808FB06F606FB07F404EA2B
:1005F0000A0404FB0B664FEA9646048804EB0905DF
:100600003444A5EB06054FEA553606FB1B5523F887
:10061000025B4FEA543505FB1B4420F8024B013ABC
:10062000E0D100F1200000F1200331F8028B4FF0FF
:1006300010021E8808FB06F606FB07F404EA0A040B
:1006400004FB0B664FEA9646048804EB0905344424
:10065000A5EB06054FEA553606FB1B5523F8025B52
:100660004FEA543505FB1B4420F8024B013AE0D118
:1006700000F1200000F1200331F8028B4FF010024E
:100680001E8808FB06F606FB07F404EA0A0404FBCE
:100690000B664FEA9646048804EB09053444A5EB43
:1006A00006054FEA553606FB1B5523F8025B4FEA59
:1006B000543505FB1B4420F8024B013AE0D1A0F56C
:1006C000F07000F1100331F8028B1E8808FB06F66B
:1006D00006FB07F404EA0A0404FB0B664FEA96469D
:1006E000048804EB09053444A5EB06054FEA5536AA
:1006F00006FB1B5523F8025B20F8024B1E8808FB03
:1007000006F606FB07F404EA0A0404FB0B664FEA4C
:100710009646048804EB09053444A5EB06054FEA28
:10072000553606FB1B5523F8025B20F8024B1E884A
:1007300008FB06F606FB07F404EA0A0404FB0B6652
:100740004FEA9646048804EB09053444A5EB0605F8
:100750004FEA553606FB1B5523F8025B20F8024B87
:100760001E8808FB06F606FB07F404EA0A0404FBED
:100770000B664FEA9646048804EB09053444A5EB62
:1007800006054FEA553606FB1B5523F8025B20F899
:10079000024B1E8808FB06F606FB07F404EA0A046F
:1007A00004FB0B664FEA9646048804EB09053444C3
:1007B000A5EB06054FEA553606FB1B5523F8025BF1
:1007C00020F8024B1E8808FB06F606FB07F404EA35
:1007D0000A0404FB0B664FEA9646048804EB0905FD
:1007E0003444A5EB06054FEA553606FB1B5523F8A6
:1007F000025B20F8024B1E8808FB06F606FB07F496
:1008000004EA0A0404FB0B664FEA9646048804EBEC
:1008100009053444A5EB06054FEA553606FB1B5582
:1008200023F8025B20F8024B1E8808FB06F606FB45
:1008300007F404EA0A0404FB0B664FEA96460488B0
:1008400004EB09053444A5EB06054FEA553606FBD3
:100850001B5523F8025B20F8024B4FF00F0200F10A
:10086000100000F1100331F8028B1E8808FB06F619
:1008700006FB07F404EA0A0404FB0B664FEA9646FB
:10088000048804EB09053444A5EB06054FEA553608
:1008900006FB1B5523F8025B20F8024B1E8808FB61
:1008A00006F606FB07F404EA0A0404FB0B664FEAAB
:1008B0009646048804EB09053444A5EB06054FEA87
:1008C000553606FB1B5523F8025B20F8024B1E88A9
:1008D00008FB06F606FB07F404EA0A0404FB0B66B1
:1008E0004FEA9646048804EB09053444A5EB060557
:1008F0004FEA553606FB1B5523F8025B20F8024BE6
:100900001E8808FB06F606FB07F404EA0A0404FB4B
:100910000B664FEA9646048804EB09053444A5EBC0
:1009200006054FEA553606FB1B5523F8025B20F8F7
:10093000024B1E8808FB06F606FB07F404EA0A04CD
:1009400004FB0B664FEA9646048804EB0905344421
:10095000A5EB06054FEA553606FB1B5523F8025B4F
:1009600020F8024B1E8808FB06F606FB07F404EA93
:100970000A0404FB0B664FEA9646048804EB09055B
:100980003444A5EB06054FEA553606FB1B5523F804
:10099000025B20F8024B1E8808FB06F606FB07F4F4
:1009A00004EA0A0404FB0B664FEA9646048804EB4B
:1009B00009053444A5EB06054FEA553606FB1B55E1
:1009C00023F8025B20F8024B1E8808FB06F606FBA4
:1009D00007F404EA0A0404FB0B664FEA964604880F
:1009E00004EB09053444A5EB06054FEA553606FB32
:1009F0001B5523F8025B20F8024B013A7FF42FAF1E
:100A0000A0F5F87000F1080331F8028B1E8808FB8E
:100A100006F606FB07F404EA0A0404FB0B664FEA39
:100A20009646048804EB09053444A5EB06054FEA15
:100A3000553606FB1B5523F8025B4FEA543505FB80
:100A40001B4420F8024B1E8808FB06F606FB07F441
:100A500004EA0A0404FB0B664FEA9646048804EB9A
:100A600009053444A5EB06054FEA553606FB1B5530
:100A700023F8025B4FEA543505FB1B4420F8024B78
:100A80001E8808FB06F606FB07F404EA0A0404FBCA
:100A90000B664FEA9646048804EB09053444A5EB3F
:100AA00006054FEA553606FB1B5523F8025B4FEA55
:100AB000543505FB1B4420F8024B1E8808FB06F644
:100AC00006FB07F404EA0A0404FB0B664FEA9646A9
:100AD000048804EB09053444A5EB06054FEA5536B6
:100AE00006FB1B5523F8025B4FEA543505FB1B44FC
:100AF00020F8024B4FF01F0200F1080000F108033C
:100B000031F8028B1E8808FB06F606FB07F404EAA0
:100B10000A0404FB0B664FEA9646048804EB0905B9
:100B20003444A5EB06054FEA553606FB1B5523F862
:100B3000025B4FEA543505FB1B4420F8024B1E882C
:100B400008FB06F606FB07F404EA0A0404FB0B663E
:100B50004FEA9646048804EB09053444A5EB0605E4
:100B60004FEA553606FB1B5523F8025B4FEA543516
:100B700005FB1B4420F8024B1E8808FB06F606FB0B
:100B800007F404EA0A0404FB0B664FEA964604885D
:100B900004EB09053444A5EB06054FEA553606FB80
:100BA0001B5523F8025B4FEA543505FB1B4420F824
:100BB000024B1E8808FB06F606FB07F404EA0A044B
:100BC00004FB0B664FEA9646048804EB090534449F
:100BD000A5EB06054FEA553606FB1B5523F8025BCD
:100BE0004FEA543505FB1B4420F8024B013A83D1F0
:100BF000A0F5FC7000F1040331F8028B1E8808FB9D
:100C000006F606FB07F404EA0A0404FB0B664FEA47
:100C10009646048804EB09053444A5EB06054FEA23
:100C2000553606FB1B5523F8025B20F8024B1E8845
:100C300008FB06F606FB07F404EA0A0404FB0B664D
:100C40004FEA9646048804EB09053444A5EB0605F3
:100C50004FEA553606FB1B5523F8025B20F8024B82
:100C60004FF03F0200F1040000F1040331F8028B61
:100C70001E8808FB06F606FB07F404EA0A0404FBD8
:100C80000B664FEA9646048804EB09053444A5EB4D
:100C900006054FEA553606FB1B5523F8025B20F884
:100CA000024B1E8808FB06F606FB07F404EA0A045A
:100CB00004FB0B664FEA9646048804EB09053444AE
:100CC000A5EB06054FEA553606FB1B5523F8025BDC
:100CD00020F8024B013AC5D1A0F5FE7000F10203E5
:100CE00031F8028B1E8808FB06F606FB07F404EABF
:100CF0000A0404FB0B664FEA9646048804EB0905D8
:100D00003444A5EB06054FEA553606FB1B5523F880
:100D1000025B4FEA543505FB1B4420F8024B4FF0B1
:100D20007F0200F1020000F1020331F8028B1E88FD
:100D300008FB06F606FB07F404EA0A0404FB0B664C
:100D40004FEA9646048804EB09053444A5EB0605F2
:100D50004FEA553606FB1B5523F8025B4FEA543524
:100D600005FB1B4420F8024B013ADAD1BDE8FC8FA9
:100D70002DE9FC5F41F6016C41F6FF5B4FF6FF7A0F
:100D8000C0F2030A4FF0200290E8280050C913FB7C
:100D900004F713FB34F815FB06F915FB36F407FBD3
:100DA0000BF303EA0A0303FB0C774FEA974708FBB0
:100DB0000BF303EA0A0303FB0C884FEA984809FB8C
:100DC0000BF303EA0A0303FB0C994FEA994904FB6E
:100DD0000BF303EA0A0303FB0C444FEA944420F8A4
:100DE000027B20F8028B20F8029B20F8024B90E84F
:100DF000280050C913FB04F713FB34F815FB06F960
:100E000015FB36F407FB0BF303EA0A0303FB0C772D
:100E10004FEA974708FB0BF303EA0A0303FB0C882E
:100E20004FEA984809FB0BF303EA0A0303FB0C990A
:100E30004FEA994904FB0BF303EA0A0303FB0C4452
:100E40004FEA944420F8027B20F8028B20F8029BA2
:100E500020F8024B013A97D1BDE8FC9FAFF3008028
:100E60002DE9F85F41F6016C40F2070BC0F2070B69
:100E70004FF0200EB1E8A802B2E8500523443544F3
:100E80004744D1444FEA53344FEA55364FEA573876
:100E90004FEA593A04EA0B0406EA0B0608EA0B0883
:100EA0000AEA0B0A04FB1C3306FB1C5508FB1C77E3
:100EB0000AFB1C99A0E8A802BEF1010EDAD1BDE838
:100EC000F89F00BFAFF30080AFF30080AFF3008066
:100ED0002DE9F85F45F6032CC5F6032C40F2070B0D
:100EE000C0F2070B41F6016A4FF0400E28C950CA04
:100EF00063446544A3EB0403A5EB06054FEA5334B2
:100F00004FEA553604EA0B0406EA0B0604FB1A33D3
:100F100006FB1A5528C0BEF1010EE7D1BDE8F89FC7
:100F20002DE9FC5F41F6016B41F6FF5C4FF6FF7A5D
:100F3000C0F2030A47F60409074600F1020231F83D
:100F4000028B0488158804EB0506A9EB05052544EA
:100F500008FB05F505FB0CF404EA0A0404FB0B5539
:100F60004FEA9545158006804FF07F0300F104009D
:100F700000F1020231F8028B0488158804EB0506A3
:100F8000A9EB0505254408FB05F505FB0CF404EA6F
:100F90000A0404FB0B554FEA954515800680013B7A
:100FA000E4D1A1F58071384600F1040231F8028BDA
:100FB0000488158804EB0506A9EB0505254408FB04
:100FC00005F505FB0CF404EA0A0404FB0B554FEA93
:100FD000954515804FEA563404FB1B6606804FF09A
:100FE0003F0300F1080000F1040231F8028B04888D
:100FF000158804EB0506A9EB0505254408FB05F556
:1010000005FB0CF404EA0A0404FB0B554FEA954572
:1010100015804FEA563404FB1B660680013BE0D185
:10102000A1F1800107F1020000F1040231F8028B06
:101030000488158804EB0506A9EB0505254408FB83
:1010400005F505FB0CF404EA0A0404FB0B554FEA12
:10105000954515804FEA563404FB1B6606804FF019
:101060003F0300F1080000F1040231F8028B04880C
:10107000158804EB0506A9EB0505254408FB05F5D5
:1010800005FB0CF404EA0A0404FB0B554FEA9545F2
:1010900015804FEA563404FB1B660680013BE0D105
:1010A000A1F18001384600F1080231F8028B048872
:1010B000158804EB0506A9EB0505254408FB05F595
:1010C00005FB0CF404EA0A0404FB0B554FEA9545B2
:1010D000158006804FF01F0300F1100000F1080298
:1010E00031F8028B0488158804EB0506A9EB050589
:1010F000254408FB05F505FB0CF404EA0A0404FB8F
:101100000B554FEA954515800680013BE4D1A1F1CE
:101110004001A0F5F77000F1080231F8028B048855
:10112000158804EB0506A9EB0505254408FB05F524
:1011300005FB0CF404EA0A0404FB0B554FEA954541
:10114000158006804FF01F0300F1100000F1080227
:1011500031F8028B0488158804EB0506A9EB050518
:10116000254408FB05F505FB0CF404EA0A0404FB1E
:101170000B554FEA954515800680013BE4D1A1F15E
:101180004001A0F5F77000F1080231F8028B0488E5
:10119000158804EB0506A9EB0505254408FB05F5B4
:1011A00005FB0CF404EA0A0404FB0B554FEA9545D1
:1011B000158006804FF01F0300F1100000F10802B7
:1011C00031F8028B0488158804EB0506A9EB0505A8
:1011D000254408FB05F505FB0CF404EA0A0404FBAE
:1011E0000B554FEA954515800680013BE4D1A1F1EE
:1011F0004001A0F5F77000F1080231F8028B048875
:10120000158804EB0506A9EB0505254408FB05F543
:1012100005FB0CF404EA0A0404FB0B554FEA954560
:10122000158006804FF01F0300F1100000F1080246
:1012300031F8028B0488158804EB0506A9EB050537
:10124000254408FB05F505FB0CF404EA0A0404FB3D
:101250000B554FEA954515800680013BE4D1A1F17D
:101260004001384600F1100231F8028B04881588DD
:1012700004EB0506A9EB0505254408FB05F505FB70
:101280000CF404EA0A0404FB0B554FEA954515805B
:101290004FEA563404FB1B6606804FF00F0300F143
:1012A000200000F1100231F8028B0488158804EB4D
:1012B0000506A9EB0505254408FB05F505FB0CF41F
:1012C00004EA0A0404FB0B554FEA954515804FEAE2
:1012D000563404FB1B660680013BE0D1A1F12001DE
:1012E000A0F5EF7000F1100231F8028B0488158828
:1012F00004EB0506A9EB0505254408FB05F505FBF0
:101300000CF404EA0A0404FB0B554FEA95451580DA
:101310004FEA563404FB1B6606804FF00F0300F1C2
:10132000200000F1100231F8028B0488158804EBCC
:101330000506A9EB0505254408FB05F505FB0CF49E
:1013400004EA0A0404FB0B554FEA954515804FEA61
:10135000563404FB1B660680013BE0D1A1F120015D
:10136000A0F5EF7000F1100231F8028B04881588A7
:1013700004EB0506A9EB0505254408FB05F505FB6F
:101380000CF404EA0A0404FB0B554FEA954515805A
:101390004FEA563404FB1B6606804FF00F0300F142
:1013A000200000F1100231F8028B0488158804EB4C
:1013B0000506A9EB0505254408FB05F505FB0CF41E
:1013C00004EA0A0404FB0B554FEA954515804FEAE1
:1013D000563404FB1B660680013BE0D1A1F12001DD
:1013E000A0F5EF7000F1100231F8028B0488158827
:1013F00004EB0506A9EB0505254408FB05F505FBEF
:101400000CF404EA0A0404FB0B554FEA95451580D9
:101410004FEA563404FB1B6606804FF00F0300F1C1
:10142000200000F1100231F8028B0488158804EBCB
:101430000506A9EB0505254408FB05F505FB0CF49D
:1014400004EA0A0404FB0B554FEA954515804FEA60
:10145000563404FB1B660680013BE0D1A1F120015C
:10146000A0F5EF7000F1100231F8028B04881588A6
:1014700004EB0506A9EB0505254408FB05F505FB6E
:101480000CF404EA0A0404FB0B554FEA9545158059
:101490004FEA563404FB1B6606804FF00F0300F141
:1014A000200000F1100231F8028B0488158804EB4B
:1014B0000506A9EB0505254408FB05F505FB0CF41D
:1014C00004EA0A0404FB0B554FEA954515804FEAE0
:1014D000563404FB1B660680013BE0D1A1F12001DC
:1014E000A0F5EF7000F1100231F8028B0488158826
:1014F00004EB0506A9EB0505254408FB05F505FBEE
:101500000CF404EA0A0404FB0B554FEA95451580D8
:101510004FEA563404FB1B6606804FF00F0300F1C0
:10152000200000F1100231F8028B0488158804EBCA
:101530000506A9EB0505254408FB05F505FB0CF49C
:1015400004EA0A0404FB0B554FEA954515804FEA5F
:10155000563404FB1B660680013BE0D1A1F120015B
:10156000A0F5EF7000F1100231F8028B04881588A5
:1015700004EB0506A9EB0505254408FB05F505FB6D
:101580000CF404EA0A0404FB0B554FEA9545158058
:101590004FEA563404FB1B6606804FF00F0300F140
:1015A000200000F1100231F8028B0488158804EB4A
:1015B0000506A9EB0505254408FB05F505FB0CF41C
:1015C00004EA0A0404FB0B554FEA954515804FEADF
:1015D000563404FB1B660680013BE0D1A1F12001DB
:1015E000A0F5EF7000F1100231F8028B0488158825
:1015F00004EB0506A9EB0505254408FB05F505FBED
:101600000CF404EA0A0404FB0B554FEA95451580D7
:101610004FEA563404FB1B6606804FF00F0300F1BF
:10162000200000F1100231F8028B0488158804EBC9
:101630000506A9EB0505254408FB05F505FB0CF49B
:1016400004EA0A0404FB0B554FEA954515804FEA5E
:10165000563404FB1B660680013BE0D1A1F120015A
:10166000384600F1200231F8028B0488158804EB1B
:101670000506A9EB0505254408FB05F505FB0CF45B
:1016800004EA0A0404FB0B554FEA954515800680D1
:101690004FF0070300F1400000F1200231F8028B07
:1016A0000488158804EB0506A9EB0505254408FB0D
:1016B00005F505FB0CF404EA0A0404FB0B554FEA9C
:1016C000954515800680013BE4D1A1F11001A0F5FC
:1016D000DF7000F1200231F8028B0488158804EBDA
:1016E0000506A9EB0505254408FB05F505FB0CF4EB
:1016F00004EA0A0404FB0B554FEA95451580068061
:101700004FF0070300F1400000F1200231F8028B96
:101710000488158804EB0506A9EB0505254408FB9C
:1017200005F505FB0CF404EA0A0404FB0B554FEA2B
:10173000954515800680013BE4D1A1F11001A0F58B
:10174000DF7000F1200231F8028B0488158804EB69
:101750000506A9EB0505254408FB05F505FB0CF47A
:1017600004EA0A0404FB0B554FEA954515800680F0
:101770004FF0070300F1400000F1200231F8028B26
:101780000488158804EB0506A9EB0505254408FB2C
:1017900005F505FB0CF404EA0A0404FB0B554FEABB
:1017A000954515800680013BE4D1A1F11001A0F51B
:1017B000DF7000F1200231F8028B0488158804EBF9
:1017C0000506A9EB0505254408FB05F505FB0CF40A
:1017D00004EA0A0404FB0B554FEA95451580068080
:1017E0004FF0070300F1400000F1200231F8028BB6
:1017F0000488158804EB0506A9EB0505254408FBBC
:1018000005F505FB0CF404EA0A0404FB0B554FEA4A
:10181000954515800680013BE4D1A1F11001A0F5AA
:10182000DF7000F1200231F8028B0488158804EB88
:101830000506A9EB0505254408FB05F505FB0CF499
:1018400004EA0A0404FB0B554FEA9545158006800F
:101850004FF0070300F1400000F1200231F8028B45
:101860000488158804EB0506A9EB0505254408FB4B
:1018700005F505FB0CF404EA0A0404FB0B554FEADA
:10188000954515800680013BE4D1A1F11001A0F53A
:10189000DF7000F1200231F8028B0488158804EB18
:1018A0000506A9EB0505254408FB05F505FB0CF429
:1018B00004EA0A0404FB0B554FEA9545158006809F
:1018C0004FF0070300F1400000F1200231F8028BD5
:1018D0000488158804EB0506A9EB0505254408FBDB
:1018E00005F505FB0CF404EA0A0404FB0B554FEA6A
:1018F000954515800680013BE4D1A1F11001A0F5CA
:10190000DF7000F1200231F8028B0488158804EBA7
:101910000506A9EB0505254408FB05F505FB0CF4B8
:1019200004EA0A0404FB0B554FEA9545158006802E
:101930004FF0070300F1400000F1200231F8028B64
:101940000488158804EB0506A9EB0505254408FB6A
:1019500005F505FB0CF404EA0A0404FB0B554FEAF9
:10196000954515800680013BE4D1A1F11001A0F559
:10197000DF7000F1200231F8028B0488158804EB37
:101980000506A9EB0505254408FB05F505FB0CF448
:1019900004EA0A0404FB0B554FEA954515800680BE
:1019A0004FF0070300F1400000F1200231F8028BF4
:1019B0000488158804EB0506A9EB0505254408FBFA
:1019C00005F505FB0CF404EA0A0404FB0B554FEA89
:1019D000954515800680013BE4D1A1F11001A0F5E9
:1019E000DF7000F1200231F8028B0488158804EBC7
:1019F0000506A9EB0505254408FB05F505FB0CF4D8
:101A000004EA0A0404FB0B554FEA9545158006804D
:101A10004FF0070300F1400000F1200231F8028B83
:101A20000488158804EB0506A9EB0505254408FB89
:101A300005F505FB0CF404EA0A0404FB0B554FEA18
:101A4000954515800680013BE4D1A1F11001A0F578
:101A5000DF7000F1200231F8028B0488158804EB56
:101A60000506A9EB0505254408FB05F505FB0CF467
:101A700004EA0A0404FB0B554FEA954515800680DD
:101A80004FF0070300F1400000F1200231F8028B13
:101A90000488158804EB0506A9EB0505254408FB19
:101AA00005F505FB0CF404EA0A0404FB0B554FEAA8
:101AB000954515800680013BE4D1A1F11001A0F508
:101AC000DF7000F1200231F8028B0488158804EBE6
:101AD0000506A9EB0505254408FB05F505FB0CF4F7
:101AE00004EA0A0404FB0B554FEA9545158006806D
:101AF0004FF0070300F1400000F1200231F8028BA3
:101B00000488158804EB0506A9EB0505254408FBA8
:101B100005F505FB0CF404EA0A0404FB0B554FEA37
:101B2000954515800680013BE4D1A1F11001A0F597
:101B3000DF7000F1200231F8028B0488158804EB75
:101B40000506A9EB0505254408FB05F505FB0CF486
:101B500004EA0A0404FB0B554FEA954515800680FC
:101B60004FF0070300F1400000F1200231F8028B32
:101B70000488158804EB0506A9EB0505254408FB38
:101B800005F505FB0CF404EA0A0404FB0B554FEAC7
:101B9000954515800680013BE4D1A1F11001A0F527
:101BA000DF7000F1200231F8028B0488158804EB05
:101BB0000506A9EB0505254408FB05F505FB0CF416
:101BC00004EA0A0404FB0B554FEA9545158006808C
:101BD0004FF0070300F1400000F1200231F8028BC2
:101BE0000488158804EB0506A9EB0505254408FBC8
:101BF00005F505FB0CF404EA0A0404FB0B554FEA57
:101C0000954515800680013BE4D1A1F11001A0F5B6
:101C1000DF7000F1200231F8028B0488158804EB94
:101C20000506A9EB0505254408FB05F505FB0CF4A5
:101C300004EA0A0404FB0B554FEA9545158006801B
:101C40004FF0070300F1400000F1200231F8028B51
:101C50000488158804EB0506A9EB0505254408FB57
:101C600005F505FB0CF404EA0A0404FB0B554FEAE6
:101C7000954515800680013BE4D1A1F11001A0F546
:101C8000DF7000F1200231F8028B0488158804EB24
:101C90000506A9EB0505254408FB05F505FB0CF435
:101CA00004EA0A0404FB0B554FEA954515800680AB
:101CB0004FF0070300F1400000F1200231F8028BE1
:101CC0000488158804EB0506A9EB0505254408FBE7
:101CD00005F505FB0CF404EA0A0404FB0B554FEA76
:101CE000954515800680013BE4D1A1F11001A0F5D6
:101CF000DF7000F1200231F8028B0488158804EBB4
:101D00000506A9EB0505254408FB05F505FB0CF4C4
:101D100004EA0A0404FB0B554FEA9545158006803A
:101D20004FF0070300F1400000F1200231F8028B70
:101D30000488158804EB0506A9EB0505254408FB76
:101D400005F505FB0CF404EA0A0404FB0B554FEA05
:101D5000954515800680013BE4D1A1F1100138467C
:101D600000F1400231F8028B0488158804EB050667
:101D7000A9EB0505254408FB05F505FB0CF404EA71
:101D80000A0404FB0B554FEA954515804FEA56347B
:101D900004FB1B66068000F1800000F1400231F870
:101DA000028B0488158804EB0506A9EB050525447C
:101DB00008FB05F505FB0CF404EA0A0404FB0B55CB
:101DC0004FEA954515804FEA563404FB1B660680A2
:101DD00000F1800000F1400231F8028B0488158880
:101DE00004EB0506A9EB0505254408FB05F505FBF5
:101DF0000CF404EA0A0404FB0B554FEA95451580E0
:101E00004FEA563404FB1B66068000F1800000F1A7
:101E1000400231F8028B0488158804EB0506A9EB13
:101E20000505254408FB05F505FB0CF404EA0A0446
:101E300004FB0B554FEA954515804FEA563404FBD9
:101E40001B660680A1F108014FF01F03A0F5BF70CB
:101E500000F1400231F8028B0488158804EB050676
:101E6000A9EB0505254408FB05F505FB0CF404EA80
:101E70000A0404FB0B554FEA954515804FEA56348A
:101E800004FB1B66068000F1800000F1400231F87F
:101E9000028B0488158804EB0506A9EB050525448B
:101EA00008FB05F505FB0CF404EA0A0404FB0B55DA
:101EB0004FEA954515804FEA563404FB1B660680B1
:101EC00000F1800000F1400231F8028B048815888F
:101ED00004EB0506A9EB0505254408FB05F505FB04
:101EE0000CF404EA0A0404FB0B554FEA95451580EF
:101EF0004FEA563404FB1B66068000F1800000F1B7
:101F0000400231F8028B0488158804EB0506A9EB22
:101F10000505254408FB05F505FB0CF404EA0A0455
:101F200004FB0B554FEA954515804FEA563404FBE8
:101F30001B660680A1F10801013B87D1384600F1FC
:101F40008002B1F800800488158804EB0506A9EB2F
:101F50000505254408FB05F505FB0CF404EA0A0415
:101F600004FB0B554FEA95451580068000F58070FF
:101F700000F18002B1F802800488158804EB0506A0
:101F8000A9EB0505254408FB05F505FB0CF404EA5F
:101F90000A0404FB0B554FEA9545158006804FF067
:101FA0003F03A0F1FE0000F18002B1F80080048838
:101FB000158804EB0506A9EB0505254408FB05F586
:101FC00005FB0CF404EA0A0404FB0B554FEA9545A3
:101FD0001580068000F5807000F18002B1F8028063
:101FE0000488158804EB0506A9EB0505254408FBC4
:101FF00005F505FB0CF404EA0A0404FB0B554FEA53
:10200000954515800680013BCBD13846B1F800805C
:1020100000F580720488158804EB0506A9EB050518
:10202000254408FB05F505FB0CF404EA0A0404FB4F
:102030000B554FEA954515804FEA563404FB1B6655
:1020400006804FF07F0300F1020000F580720488E3
:10205000158804EB0506A9EB0505254408FB05F5E5
:1020600005FB0CF404EA0A0404FB0B554FEA954502
:1020700015804FEA563404FB1B660680013BE2D113
:10208000BDE8FC9F00000000000000000000000010
:102090000000000000000000000000000000000040
:1020A0000000000000000000000000000000000030
:1020B0000000000000000000000000000000000020
:1020C0000000000000000000000000000000000010
:1020D0000000000000000000000000000000000000
:1020E00000000000000000000000000000000000F0
:1020F00000000000000000000000000000000000E0
:10210000704700BFAFF30080AFF30080AFF30080F3
:10211000AFF30080AFF30080AFF30080AFF3008037
:10212000AFF30080AFF30080AFF30080AFF3008027
:10213000AFF30080AFF30080AFF30080AFF3008017
:10214000000000000000000000000000000000008F
:10215000000000000000000000000000000000007F
:10216000000000000000000000000000000000006F
:10217000000000000000000000000000000000005F
:10218000000000000000000000000000000000004F
:10219000000000000000000000000000000000003F
:1021A000000000000000000000000000000000002F
:1021B000000000000000000000000000000000001F
:1021C000000000000000000000000000000000000F
:1021D00000000000000000000000000000000000FF
:1021E00000000000000000000000000000000000EF
:1021F00000000000000000000000000000000000DF
:1022000030B4002100220023002400253EC03EC03F
:102210003EC03EC03EC03EC03EC03EC03EC03EC0CE
:1022200030BC7047AFF30080AFF30080AFF30080A5
:10223000AFF30080AFF30080AFF30080AFF3008016
:10224000000000000000000000000000000000008E
:10225000000000000000000000000000000000007E
:10226000000000000000000000000000000000006E
:10227000000000000000000000000000000000005E
:10228000000000000000000000000000000000004E
:10229000000000000000000000000000000000003E
:1022A000000000000000000000000000000000002E
:1022B000000000000000000000000000000000001E
:1022C000000000000000000000000000000000000E
:1022D00000000000000000000000000000000000FE
:1022E00000000000000000000000000000000000EE
:1022F00000000000000000000000000000000000DE
:10230000F0B422F00703C01812F0070200240025E1
:1023100030B46A44117030BCD0E9006704F0553322
:1023200043EA530303F0333343EA930303F00F33D9
:1023300043EA131303F0FF1363F30F2386EA132614
:1023400005F0553343EA530303F0333343EA930371
:1023500003F00F3343EA131303F0FF1343EA13238D
:1023600086EA034604F0AA3343EA430303F0CC337E
:1023700043EA830303F0F03343EA031303F0FF233C
:1023800043EA032387EA134705F0AA3343EA4303EA
:1023900003F0CC3343EA830303F0F03343EA03133F
:1023A00003F0FF2343EA03236FF30F035F40C0E909
:1023B0000067F0BC704700BFAFF30080AFF3008050
:1023C000000000000000000000000000000000000D
:1023D00000000000000000000000000000000000FD
:1023E00000000000000000000000000000000000ED
:1023F00000000000000000000000000000000000DD
:1024000003B32DE9F04122F00704001912F007028E
:102410000BD01C00C2F10805AC4200DD2C00A3EB80
:102420000408230000F0ECF84346DA0804D098468C
:1024300000F066F808F0070313B1002200F0E0F89E
:10244000BDE8F081704700BFAFF30080AFF30080BC
:10245000AFF30080AFF30080AFF30080AFF30080F4
:10246000AFF30080AFF30080AFF30080AFF30080E4
:10247000AFF30080AFF30080AFF30080AFF30080D4
:10248000000000000000000000000000000000004C
:10249000000000000000000000000000000000003C
:1024A000000000000000000000000000000000002C
:1024B000000000000000000000000000000000001C
:1024C000000000000000000000000000000000000C
:1024D00000000000000000000000000000000000FC
:1024E00000000000000000000000000000000000EC
:1024F00000000000000000000000000000000000DC
:1025000051F8044B51F8045BD0E9006704F05533EF
:1025100043EA530303F0333343EA930303F00F33E7
:1025200043EA131303F0FF1363F30F2386EA132622
:1025300005F0553343EA530303F0333343EA93037F
:1025400003F00F3343EA131303F0FF1343EA13239B
:1025500086EA034604F0AA3343EA430303F0CC338C
:1025600043EA830303F0F03343EA031303F0FF234A
:1025700043EA032387EA134705F0AA3343EA4303F8
:1025800003F0CC3343EA830303F0F03343EA03134D
:1025900003F0FF2343EA03236FF30F035F40E0E8F8
:1025A0000267013AACD17047AFF30080AFF300800F
:1025B000AFF30080AFF30080AFF30080AFF3008093
:1025C000000000000000000000000000000000000B
:1025D00000000000000000000000000000000000FB
:1025E00000000000000000000000000000000000EB
:1025F00000000000000000000000000000000000DB
:102600000024002530B46A4411F8015B02F8015B34
:10261000013BF9D130BCD0E9006704F0553343EAFF
:10262000530303F0333343EA930303F00F3343EAD6
:10263000131303F0FF1363F30F2386EA132605F049
:10264000553343EA530303F0333343EA930303F070
:102650000F3343EA131303F0FF1343EA132386EA0D
:10266000034604F0AA3343EA430303F0CC3343EABE
:10267000830303F0F03343EA031303F0FF2343EA39
:10268000032387EA134705F0AA3343EA430303F021
:10269000CC3343EA830303F0F03343EA031303F03C
:1026A000FF2343EA03236FF30F035F40E0E8026771
:1026B000704700BFAFF30080AFF30080AFF300803E
:1026C000000000000000000000000000000000000A
:1026D00000000000000000000000000000000000FA
:1026E00000000000000000000000000000000000EA
:1026F00000000000000000000000000000000000DA
:1027000003B32DE9F04122F00704001912F007028B
:102710000BD01C00C2F10805AC4200DD2C00A3EB7D
:102720000408230000F0ECF84346DA0804D0984689
:1027300000F066F808F0070313B1002200F0E0F89B
:10274000BDE8F081704700BFAFF30080AFF30080B9
:10275000AFF30080AFF30080AFF30080AFF30080F1
:10276000AFF30080AFF30080AFF30080AFF30080E1
:10277000AFF30080AFF30080AFF30080AFF30080D1
:102780000000000000000000000000000000000049
:102790000000000000000000000000000000000039
:1027A0000000000000000000000000000000000029
:1027B0000000000000000000000000000000000019
:1027C0000000000000000000000000000000000009
:1027D00000000000000000000000000000000000F9
:1027E00000000000000000000000000000000000E9
:1027F00000000000000000000000000000000000D9
:1028000051F8044B51F8045BD0E9006704F05533EC
:1028100043EA530303F0333343EA930303F00F33E4
:1028200043EA131303F0FF1363F30F234FEA132656
:1028300005F0553343EA530303F0333343EA93037C
:1028400003F00F3343EA131303F0FF1343EA132398
:1028500086EA034604F0AA3343EA430303F0CC3389
:1028600043EA830303F0F03343EA031303F0FF2347
:1028700043EA03234FEA134705F0AA3343EA43032D
:1028800003F0CC3343EA830303F0F03343EA03134A
:1028900003F0FF2343EA03236FF30F035F40E0E8F5
:1028A0000267013AACD17047AFF30080AFF300800C
:1028B000AFF30080AFF30080AFF30080AFF3008090
:1028C0000000000000000000000000000000000008
:1028D00000000000000000000000000000000000F8
:1028E00000000000000000000000000000000000E8
:1028F00000000000000000000000000000000000D8
:102900000024002530B44FEA82076A440F26BE40F7
:1029100037003E433F0111F8015B013B02F8015BC8
:10292000F7D130BC04F0553747EA570707F0333783
:1029300047EA970707F00F3747EA171707F0FF171F
:1029400067F30F274FEA172205F0553747EA570775
:1029500007F0333747EA970707F00F3747EA1717AB
:1029600007F0FF1747EA172782EA074204F0AA3761
:1029700047EA470707F0CC3747EA870707F0F03701
:1029800047EA071707F0FF2747EA07274FEA1743E9
:1029900005F0AA3747EA470707F0CC3747EA870729
:1029A00007F0F03747EA071707F0FF2747EA07273E
:1029B0006FF30F077B40D0E90045B443B543224392
:1029C0002B43E0E802237047AFF30080AFF30080B1
:1029D000AFF30080AFF30080AFF30080AFF300806F
:1029E000AFF30080AFF30080AFF30080AFF300805F
:1029F000AFF30080AFF30080AFF30080AFF300804F
:102A000030B4CA0805D000240025E0E80245013AA8
:102A1000FBD111F007010AD00F231A431B01013922
:102A2000FBD1D0E9004594439543E0E8024530BC32
:102A3000704700BFAFF30080AFF30080AFF30080BA
:102A40000000000000000000000000000000000086
:102A50000000000000000000000000000000000076
:102A60000000000000000000000000000000000066
:102A70000000000000000000000000000000000056
:102A80000000000000000000000000000000000046
:102A90000000000000000000000000000000000036
:102AA0000000000000000000000000000000000026
:102AB0000000000000000000000000000000000016
:102AC0000000000000000000000000000000000006
:102AD00000000000000000000000000000000000F6
:102AE00000000000000000000000000000000000E6
:102AF00000000000000000000000000000000000D6
:102B000003B32DE9F04122F00704001912F0070287
:102B10000BD01C00C2F10805AC4200DD2C00A3EB79
:102B20000408230000F0ECF84346DA0804D0984685
:102B300000F066F808F0070313B1002200F0E0F897
:102B4000BDE8F081704700BFAFF30080AFF30080B5
:102B5000AFF30080AFF30080AFF30080AFF30080ED
:102B6000AFF30080AFF30080AFF30080AFF30080DD
:102B7000AFF30080AFF30080AFF30080AFF30080CD
:102B80000000000000000000000000000000000045
:102B90000000000000000000000000000000000035
:102BA0000000000000000000000000000000000025
:102BB0000000000000000000000000000000000015
:102BC0000000000000000000000000000000000005
:102BD00000000000000000000000000000000000F5
:102BE00000000000000000000000000000000000E5
:102BF00000000000000000000000000000000000D5
:102C0000F0E80245230065F31F446FF30F0545EA22
:102C1000134584EA142303F47F435C4084EA0324CD
:102C200084EA141303F0F0135C4084EA031484EA8A
:102C3000940303F00C335C4084EA830484EA540375
:102C400003F022335C4084EA430485EA152303F44D
:102C50007F435D4085EA032585EA151303F0F013F1
:102C60005D4085EA031585EA950303F00C335D406A
:102C700085EA830585EA550303F022335D4085EA42
:102C8000430541F8044B013A41F8045BB8D1704761
:102C9000AFF30080AFF30080AFF30080AFF30080AC
:102CA000AFF30080AFF30080AFF30080AFF300809C
:102CB000AFF30080AFF30080AFF30080AFF300808C
:102CC0000000000000000000000000000000000004
:102CD00000000000000000000000000000000000F4
:102CE00000000000000000000000000000000000E4
:102CF00000000000000000000000000000000000D4
:102D0000F0E80245260065F31F446FF30F0545EA1E
:102D1000164584EA142606F47F46744084EA0624A5
:102D200084EA141606F0F016744084EA061484EA65
:102D3000940606F00C36744084EA860484EA54064D
:102D400006F02236744084EA460485EA152606F425
:102D50007F46754085EA062585EA151606F0F016C9
:102D6000754085EA061585EA950606F00C3675402D
:102D700085EA860585EA550606F02236754085EA1D
:102D8000460530B46A4412F8014B013B01F8014B8F
:102D9000F9D102B0704700BFAFF30080AFF30080FD
:102DA000AFF30080AFF30080AFF30080AFF300809B
:102DB000AFF30080AFF30080AFF30080AFF300808B
:102DC0000000000000000000000000000000000003
:102DD00000000000000000000000000000000000F3
:102DE00000000000000000000000000000000000E3
:102DF00000000000000000000000000000000000D3
:102E00002DE9F04791461A46089BE3B122F00704EA
:102E1000001912F007020BD01C00C2F10805AC42E9
:102E200000DD2C00A3EB0408230000F0E9F8434682
:102E3000DA0804D0984600F063F808F0070313B1ED
:102E4000002200F0DDF8BDE8F08700BFAFF300809E
:102E5000AFF30080AFF30080AFF30080AFF30080EA
:102E6000AFF30080AFF30080AFF30080AFF30080DA
:102E7000AFF30080AFF30080AFF30080AFF30080CA
:102E80000000000000000000000000000000000042
:102E90000000000000000000000000000000000032
:102EA0000000000000000000000000000000000022
:102EB0000000000000000000000000000000000012
:102EC0000000000000000000000000000000000002
:102ED00000000000000000000000000000000000F2
:102EE00000000000000000000000000000000000E2
:102EF00000000000000000000000000000000000D2
:102F0000F0E80245230065F31F446FF30F0545EA1F
:102F1000134584EA142303F47F435C4084EA0324CA
:102F200084EA141303F0F0135C4084EA031484EA87
:102F3000940303F00C335C4084EA830484EA540372
:102F400003F022335C4084EA430485EA152303F44A
:102F50007F435D4085EA032585EA151303F0F013EE
:102F60005D4085EA031585EA950303F00C335D4067
:102F700085EA830585EA550303F022335D4085EA3F
:102F8000430551F8043B5C4049F8044B51F8043BBD
:102F90005D40013A49F8045BB2D17047AFF300805D
:102FA000AFF30080AFF30080AFF30080AFF3008099
:102FB000AFF30080AFF30080AFF30080AFF3008089
:102FC0000000000000000000000000000000000001
:102FD00000000000000000000000000000000000F1
:102FE00000000000000000000000000000000000E1
:102FF00000000000000000000000000000000000D1
:10300000F0E80245260065F31F446FF30F0545EA1B
:10301000164584EA142606F47F46744084EA0624A2
:1030200084EA141606F0F016744084EA061484EA62
:10303000940606F00C36744084EA860484EA54064A
:1030400006F02236744084EA460485EA152606F422
:103050007F46754085EA062585EA151606F0F016C6
:10306000754085EA061585EA950606F00C3675402A
:1030700085EA860585EA550606F02236754085EA1A
:10308000460530B46A4412F8014B11F8015B6C40FC
:10309000013B09F8014BF6D102B07047AFF3008055
:1030A000AFF30080AFF30080AFF30080AFF3008098
:1030B000AFF30080AFF30080AFF30080AFF3008088
:1030C0000000000000000000000000000000000000
:1030D00000000000000000000000000000000000F0
:1030E00000000000000000000000000000000000E0
:1030F00000000000000000000000000000000000D0
:103100008B0704D1CA000FF2B851891AF8E22DE9F1
:10311000F05F86B08A0852010FF28451891A059136
:103120005B0079D2836AC46A026D416DC2628162BA
:10313000D0F8A020D0F8A41002654165826FC16F5D
:10314000C0F8A420C0F8A0108367C4678368C4686F
:10315000026B416B8260C160D0F88020D0F884108F
:1031600042630163826DC16DC0F88020C0F8841095
:10317000C365846503694469026E416E4261016101
:10318000826BC16B02664166D0F8B020D0F8B410F3
:10319000C2638163C0F8B030C0F8B440D0F8883062
:1031A000D0F88C40C0F88C30C0F888408369C4697E
:1031B000D0F89020D0F89410C2618161D0F8B82086
:1031C000D0F8BC10C0F89020C0F89410026C416C8C
:1031D000C0F8BC20C0F8B81003644464836EC46EA9
:1031E000C3668466036A446AD0F8C020D0F8C4106D
:1031F00002624162026F416FC0F8C420C0F8C01083
:10320000D0F89820D0F89C1002674167C0F89C3035
:10321000C0F8984001F0C1B979D5836AC46A826F59
:10322000C16F8262C162D0F8A020D0F8A410C2673A
:103230008167026D416DC0F8A020C0F8A4104365FD
:1032400004658368C468826DC16DC2608160D0F816
:103250008020D0F884108265C165026B416BC0F894
:103260008420C0F880100363446303694469D0F884
:10327000B020D0F8B41002614161826BC16BC0F81C
:10328000B420C0F8B010026E416E8263C163436621
:103290000466D0F88830D0F88C40C0F88C30C0F884
:1032A00088408369C469026C416C8261C161D0F855
:1032B000B820D0F8BC1042640164D0F89020D0F857
:1032C0009410C0F8B820C0F8BC10C0F89430C0F812
:1032D0009040836EC46EC3668466036A446AD0F805
:1032E0009820D0F89C1042620162026F416FC0F8D2
:1032F0009820C0F89C10D0F8C020D0F8C4104267C5
:103300000167C0F8C030C0F8C44000F06BBC836AED
:10331000C46AD0F8A020D0F8A410C2628162C0F8BC
:10332000A430C0F8A040036D446D826FC16F426548
:103330000165C36784678368C468D0F88020D0F8CB
:103340008410C2608160C0F88430C0F88040036B94
:10335000446B826DC16D42630163C365846503691B
:103360004469826BC16B42610161C3638463036E14
:10337000446ED0F8B020D0F8B41042660166C0F8B0
:10338000B430C0F8B0408369C469D0F8B820D0F830
:10339000BC10C2618161C0F8BC30C0F8B840036C99
:1033A000446CD0F89020D0F8941042640164C0F8C6
:1033B0009430C0F89040036A446A026F416F4262E1
:1033C000016243670467D0F89830D0F89C40D0F889
:1033D000C020D0F8C410C0F89C20C0F89810C0F8E5
:1033E000C430C0F8C04000F06BBE00BFAFF3008037
:1033F000AFF30080AFF30080AFF30080AFF3008045
:1034000097A17DE1AFF30080AFF30080AFF30080C0
:10341000AFF30080AFF30080AFF30080AFF3008024
:10342000AFF30080AFF30080AFF30080AFF3008014
:10343000AFF30080AFF30080AFF30080AFF3008004
:10344000000000000000000000000000000000007C
:10345000000000000000000000000000000000006C
:10346000000000000000000000000000000000005C
:10347000000000000000000000000000000000004C
:10348000000000000000000000000000000000003C
:10349000000000000000000000000000000000002C
:1034A000000000000000000000000000000000001C
:1034B000000000000000000000000000000000000C
:1034C00000000000000000000000000000000000FC
:1034D00000000000000000000000000000000000EC
:1034E00000000000000000000000000000000000DC
:1034F00000000000000000000000000000000000CC
:103500003FA1FDE0AFF30080AFF30080AFF3008098
:10351000AFF30080AFF30080AFF30080AFF3008023
:10352000AFF30080AFF30080AFF30080AFF3008013
:10353000AFF30080AFF30080AFF30080AFF3008003
:10354000000000000000000000000000000000007B
:10355000000000000000000000000000000000006B
:10356000000000000000000000000000000000005B
:10357000000000000000000000000000000000004B
:10358000000000000000000000000000000000003B
:10359000000000000000000000000000000000002B
:1035A000000000000000000000000000000000001B
:1035B000000000000000000000000000000000000B
:1035C00000000000000000000000000000000000FB
:1035D00000000000000000000000000000000000EB
:1035E00000000000000000000000000000000000DB
:1035F00000000000000000000000000000000000CB
:103600000100000000000000000000008900000030
:10361000000000008B00008000000000808000801F
:10362000010000008B00000001000000008000008D
:1036300001000000888000800100000082000080FE
:10364000000000000B000000000000000A00000065
:1036500001000000828000000000000003800000E4
:10366000010000008B800000010000000B000080C2
:10367000010000008A00008001000000810000803D
:1036800000000000810000800000000008000080B1
:1036900000000000830000000000000003800080A4
:1036A0000100000088800080000000008800008089
:1036B0000100000000800000000000008280008007
:1036C000FF000000AFF30080AFF30080AFF3008095
:1036D000AFF30080AFF30080AFF30080AFF3008062
:1036E000AFF30080AFF30080AFF30080AFF3008052
:1036F000AFF30080AFF30080AFF30080AFF3008042
:103700002DE9F05F86B00591036A816C4B40016F33
:103710004B40D0F898104B40D0F8C0104B40C768D1
:10372000416B4F40C16D4F40D0F884104F40D0F8EE
:10373000AC104F4083EAF7760096466AC16C4E4063
:10374000416F4E40D0F89C104E40D0F8C4104E400F
:10375000D0F808E0016B9EEA010E816D9EEA010E31
:10376000D0F880109EEA010ED0F8A8109EEA010E53
:1037700096EA0E08CDF804800569816B4D40016E14
:103780004D40D0F888104D40D0F8B0104D4085EA3B
:10379000F679CDF808904469C16B4C40416E4C40BD
:1037A000D0F88C104C40D0F8B4104C4063400393D8
:1037B0000368816A4B40016D4B40816F4B40D0F8EC
:1037C000A0104B4083EAF47A4668C16A4E40416DCE
:1037D0004E40C16F4E40D0F8A4104E4096EA050B03
:1037E000C469416C4C40C16E4C40D0F894104C40C0
:1037F000D0F8BC104C408EEAF47504958569016CD4
:103800004D40816E4D40D0F890104D40D0F8B8102A
:103810004D4097EA050285EAF67C94EA030E456D71
:10382000D0F88460D0F8B4708369846C95EA080598
:10383000574096EA0B0693EA090394EA0C045FEA00
:10384000B5755FEA76265FEA77075FEAB3435FEA1A
:10385000B45425EA04015940416526EA0501614056
:10386000C0F8841027EA06016940C0F8B41023EAC2
:1038700007017140816124EA030179408164D0F835
:10388000A4708368C46B856ED0F89C6097EA0807C3
:10389000544093EA0A0395EA090596EA0E065FEAA0
:1038A000F7575FEA74745FEA35555FEA367625EAC2
:1038B00004015940C0F8A41026EA05016140816066
:1038C00027EA06016940C16323EA07017140816666
:1038D00024EA03017940C0F89C10DDF80080846A76
:1038E000856DD0F88C60D0F8B870436A94EA08040B
:1038F000564095EA0A0597EA090793EA0E035FEA3C
:10390000B4345FEAF5655FEA36665FEA37175FEA67
:10391000B34325EA04015940816226EA050161406A
:10392000816527EA06016940C0F88C1023EA070187
:103930007140C0F8B81024EA030179404162866FF3
:10394000D0F8AC704369046C056F96EA08065340E2
:1039500097EA0B0794EA090495EA0C055FEA363604
:103960005FEAF7775FEA73035FEA74145FEA75351D
:1039700025EA04015940816726EA05016140C0F843
:10398000AC1027EA06016940416123EA0701714052
:10399000016424EA030179400167DDF80C900368B3
:1039A000046B456ED0F89460D0F8C07093EA0803B9
:1039B000554094EA0A0496EA090697EA0C075FEA7A
:1039C000B4245FEAB5255FEA76565FEA776726EAB0
:1039D00005016140016327EA06016940416623EA67
:1039E00007017140C0F8941024EA03017940C0F83F
:1039F000C0100599A5430C686B4063400360049AAE
:103A0000056DD0F88060D0F8B070C369C46C95EAD9
:103A10000805574096EA0A0693EA090394EA0E0459
:103A20005FEAF5755FEAB6265FEAB7075FEAB34378
:103A30005FEAB45425EA04015940016526EA05010C
:103A40006140C0F8801027EA06016940C0F8B01054
:103A500023EA07017140C16124EA03017940C1648E
:103A6000D0F8A070C368846BC56ED0F8986097EAF0
:103A70000807544093EA0B0395EA090596EA0C06F9
:103A80005FEAF7575FEAF3735FEA74745FEAF5453C
:103A90005FEA367625EA04015940C0F8A01026EA0C
:103AA00005016140C16027EA06016940816323EA9C
:103AB00007017140C16624EA03017940C0F89810FB
:103AC000DDF80480C46AC56DD0F88860D0F8BC7099
:103AD000036A94EA0804564095EA0B0597EA090739
:103AE00093EA0C035FEAB4345FEAF5655FEA766651
:103AF0005FEA37175FEAF34325EA04015940C162E0
:103B000026EA05016140C16527EA06016940C0F85F
:103B1000881023EA07017140C0F8BC1024EA0301B1
:103B200079400162C66FD0F8A8700369446C456F94
:103B300096EA0806534097EA0A0794EA090495EAC8
:103B40000E055FEAF6265FEAF7775FEA73035FEA3E
:103B500034145FEA353525EA04015940C16726EA85
:103B600005016140C0F8A81027EA0601694001611B
:103B700023EA07017140416424EA03017940416767
:103B8000DDF808904368446B056ED0F89060D0F87B
:103B9000C47093EA0803554094EA0B0496EA0906B8
:103BA00097EA0E075FEAB4245FEAF5255FEAB656A6
:103BB0005FEA776726EA05016140416327EA06016B
:103BC0006940016623EA07017140C0F8901024EAB9
:103BD00003017940C0F8C4100599A5434C686B40B7
:103BE00063404360D0F8C030816C4B40D0F89810EF
:103BF0004B40416A4B40416F4B40476BD0F88010BF
:103C00004F4081684F40C16D4F40D0F8AC104F40DD
:103C100083EAF7760096D0F8C460C16C4E40D0F8C5
:103C20009C104E40016A4E40016F4E40D0F830E08B
:103C3000D0F884109EEA010EC1689EEA010E816DE3
:103C40009EEA010ED0F8A8109EEA010E96EA0E0830
:103C5000CDF80480456ED0F8B4104D40816B4D40D6
:103C6000D0F88C104D4001694D4085EAF679CDF8C9
:103C70000890046ED0F8B0104C40C16B4C40D0F8A6
:103C800088104C4041694C40634003930368416D88
:103C90004B40D0F8A0104B40816A4B40C16F4B4065
:103CA00083EAF47A4668016D4E40D0F8A4104E4085
:103CB000C16A4E40816F4E4096EA050BD0F89040A5
:103CC000C1694C40816E4C40D0F8BC104C40016C36
:103CD0004C408EEAF4750495D0F8945081694D40BB
:103CE000C16E4D40D0F8B8104D40416C4D4097EA40
:103CF000050285EAF67C94EA030ED0F8A450C66D5E
:103D00004769D0F89430846C95EA0805574096EAE4
:103D10000B0693EA090394EA0C045FEAB5755FEABF
:103D200076265FEA77075FEAB3435FEAB45425EA91
:103D300004015940C0F8A41026EA05016140C1659C
:103D400027EA06016940416123EA07017140C0F892
:103D5000941024EA030179408164876F036BD0F8E3
:103D6000B040C56E066A97EA0807544093EA0A0312
:103D700095EA090596EA0E065FEAF7575FEA74745A
:103D80005FEA35555FEA367625EA040159408167D6
:103D900026EA05016140016327EA06016940C0F88F
:103DA000B01023EA07017140C16624EA030179409B
:103DB0000162DDF80080446DC568D0F88860476C0A
:103DC000D0F8C43094EA0804564095EA0A0597EA08
:103DD000090793EA0E035FEAB4345FEAF5655FEA28
:103DE00036665FEA37175FEAB34325EA04015940B4
:103DF000416526EA05016140C16027EA0601694084
:103E0000C0F8881023EA07017140416424EA0301E5
:103E10007940C0F8C410866AD0F8AC70036E84692B
:103E2000D0F8985096EA0806534097EA0B0794EAB0
:103E3000090495EA0C055FEA36365FEAF7775FEA30
:103E400073035FEA74145FEA753525EA040159408B
:103E5000816226EA05016140C0F8AC1027EA06013C
:103E60006940016623EA07017140816124EA030188
:103E70007940C0F89810DDF80C900368D0F88440C1
:103E8000C56BD0F8BC60476F93EA0803554094EACD
:103E90000A0496EA090697EA0C075FEAB4245FEA87
:103EA000B5255FEA76565FEA776726EA0501614045
:103EB000C0F8841027EA06016940C16323EA0701BC
:103EC0007140C0F8BC1024EA0301794041670599AC
:103ED000A5438C686B4063400360049AD0F8A050FF
:103EE000866D0769D0F89030C46C95EA0805574094
:103EF00096EA0A0693EA090394EA0E045FEAF57566
:103F00005FEAB6265FEAB7075FEAB3435FEAB454F5
:103F100025EA04015940C0F8A01026EA05016140D5
:103F2000816527EA06016940016123EA07017140C2
:103F3000C0F8901024EA03017940C164C76F436B55
:103F4000D0F8B440856E466A97EA0807544093EA71
:103F50000B0395EA090596EA0C065FEAF7575FEA54
:103F6000F3735FEA74745FEAF5455FEA367625EA33
:103F700004015940C16726EA05016140416327EA0F
:103F800006016940C0F8B41023EA07017140816658
:103F900024EA030179404162DDF80480046D8568FC
:103FA000D0F88C60076CD0F8C03094EA0804564012
:103FB00095EA0B0597EA090793EA0C035FEAB43424
:103FC0005FEAF5655FEA76665FEA37175FEAF34313
:103FD00025EA04015940016526EA05016140816036
:103FE00027EA06016940C0F88C1023EA07017140F6
:103FF000016424EA03017940C0F8C010C66AD0F811
:10400000A870436EC469D0F89C5096EA08065340E5
:1040100097EA0A0794EA090495EA0E055FEAF6268C
:104020005FEAF7775FEA73035FEA34145FEA3535D6
:1040300025EA04015940C16226EA05016140C0F841
:10404000A81027EA06016940416623EA070171408A
:10405000C16124EA03017940C0F89C10DDF80890A2
:104060004368D0F88040856BD0F8B860076F93EA5A
:104070000803554094EA0B0496EA090697EA0E07EE
:104080005FEAB4245FEAF5255FEAB6565FEA776730
:1040900026EA05016140C0F8801027EA0601694060
:1040A000816323EA07017140C0F8B81024EA0301D4
:1040B000794001670599A543CC686B406340436034
:1040C000436F816C4B40416A4B40D0F8C4104B4069
:1040D000D0F89C104B40D0F88070816D4F40016B40
:1040E0004F4081684F40D0F8AC104F4083EAF776DC
:1040F0000096066FC16C4E40016A4E40D0F8C01069
:104100004E40D0F898104E40D0F884E0C16D9EEA41
:10411000010E416B9EEA010EC1689EEA010ED0F8C5
:10412000A8109EEA010E96EA0E08CDF80480C56B31
:1041300041694D40D0F8B4104D40D0F888104D4042
:10414000416E4D4085EAF679CDF80890846B01699F
:104150004C40D0F8B0104C40D0F88C104C40016E60
:104160004C40634003930368D0F8A4104B40C16FE8
:104170004B40416D4B40C16A4B4083EAF47A46683C
:10418000D0F8A0104E40816F4E40016D4E40816AC4
:104190004E4096EA050BD0F8B840D0F890104C404D
:1041A000C16E4C40016C4C4081694C408EEAF47504
:1041B0000495D0F8BC50D0F894104D40816E4D401D
:1041C000416C4D40C1694D4097EA050285EAF67C95
:1041D00094EA030E856F8668076ED0F8BC30846C55
:1041E00095EA0805574096EA0B0693EA090394EA14
:1041F0000C045FEAB5755FEA76265FEA77075FEA47
:10420000B3435FEAB45425EA04015940816726EAC2
:1042100005016140816027EA06016940016623EAE1
:1042200007017140C0F8BC1024EA030179408164A1
:10423000876AD0F884300469856ED0F8C06097EA48
:104240000807544093EA0A0395EA090596EA0E0620
:104250005FEAF7575FEA74745FEA35555FEA3676CE
:1042600025EA04015940816226EA05016140C0F84F
:10427000841027EA06016940016123EA07017140C1
:10428000816624EA03017940C0F8C010DDF800809F
:10429000D0F8A440456BD0F88C60C769036F94EAEE
:1042A0000804564095EA0A0597EA090793EA0E03BF
:1042B0005FEAB4345FEAF5655FEA36665FEA3717AE
:1042C0005FEAB34325EA04015940C0F8A41026EA86
:1042D00005016140416327EA06016940C0F88C107E
:1042E00023EA07017140C16124EA030179400167B3
:1042F000466DD0F8AC70836BD0F89440456A96EA6E
:104300000806534097EA0B0794EA090495EA0C055E
:104310005FEA36365FEAF7775FEA73035FEA7414A1
:104320005FEA753525EA04015940416526EA050131
:104330006140C0F8AC1027EA06016940816323EAB6
:1043400007017140C0F8941024EA030179404162EA
:10435000DDF80C900368C46DD0F8B050066CD0F84E
:104360009C7093EA0803554094EA0A0496EA090609
:1043700097EA0C075FEAB4245FEAB5255FEA765650
:104380005FEA776726EA05016140C16527EA060111
:104390006940C0F8B01023EA07017140016424EAC3
:1043A00003017940C0F89C100599A5430C696B4046
:1043B00063400360049AC56FC668476ED0F8B83092
:1043C000C46C95EA0805574096EA0A0693EA090381
:1043D00094EA0E045FEAF5755FEAB6265FEAB7076E
:1043E0005FEAB3435FEAB45425EA04015940C16768
:1043F00026EA05016140C16027EA0601694041667D
:1044000023EA07017140C0F8B81024EA030179409B
:10441000C164C76AD0F880304469C56ED0F8C46002
:1044200097EA0807544093EA0B0395EA090596EAD0
:104430000C065FEAF7575FEAF3735FEA74745FEAAA
:10444000F5455FEA367625EA04015940C16226EA5D
:1044500005016140C0F8801027EA0601694041610A
:1044600023EA07017140C16624EA03017940C0F8DC
:10447000C410DDF80480D0F8A040056BD0F8886047
:104480008769436F94EA0804564095EA0B0597EA5A
:10449000090793EA0C035FEAB4345FEAF5655FEA63
:1044A00076665FEA37175FEAF34325EA040159406D
:1044B000C0F8A01026EA05016140016327EA060161
:1044C0006940C0F8881023EA07017140816124EA3D
:1044D000030179404167066DD0F8A870C36BD0F82E
:1044E0009040056A96EA0806534097EA0A0794EA5C
:1044F000090495EA0E055FEAF6265FEAF7775FEAB8
:1045000073035FEA34145FEA353525EA0401594044
:10451000016526EA05016140C0F8A81027EA0601F6
:104520006940C16323EA07017140C0F8901024EA92
:10453000030179400162DDF808904368846DD0F88A
:10454000B450466CD0F8987093EA0803554094EA4A
:104550000B0496EA090697EA0E075FEAB4245FEABD
:10456000F5255FEAB6565FEA776726EA05016140FE
:10457000816527EA06016940C0F8B41023EA070103
:104580007140416424EA03017940C0F8981005990C
:10459000A5434C696B4063404360D0F89C30816C0C
:1045A0004B40D0F8C4104B40016F4B40016A4B4068
:1045B000876DC1684F40D0F884104F40016B4F4069
:1045C000D0F8AC104F4083EAF7760096D0F89860A8
:1045D000C16C4E40D0F8C0104E40416F4E40416A11
:1045E0004E40D0F85CE081689EEA010ED0F8801061
:1045F0009EEA010E416B9EEA010ED0F8A8109EEAD9
:10460000010E96EA0E08CDF80480D0F8B050016E85
:104610004D4041694D40D0F88C104D40C16B4D402C
:1046200085EAF679CDF80890D0F8B440416E4C4058
:1046300001694C40D0F888104C40816B4C4063407D
:1046400003930368816F4B40C16A4B40D0F8A410BC
:104650004B40016D4B4083EAF47A4668C16F4E408F
:10466000816A4E40D0F8A0104E40416D4E4096EA0F
:10467000050B446CD0F8B8104C40816E4C408169F9
:104680004C40D0F894104C408EEAF4750495056CBB
:10469000D0F8BC104D40C16E4D40C1694D40D0F8BE
:1046A00090104D4097EA050285EAF67C94EA030EE5
:1046B000856A066B876B036C846C95EA0805574026
:1046C00096EA0B0693EA090394EA0C045FEAB575CF
:1046D0005FEA76265FEA77075FEAB3435FEAB4549E
:1046E00025EA04015940816226EA0501614001631F
:1046F00027EA06016940816323EA070171400164EA
:1047000024EA030179408164476DC36D446EC56E30
:10471000466F97EA0807544093EA0A0395EA0905A9
:1047200096EA0E065FEAF7575FEA74745FEA35555A
:104730005FEA367625EA04015940416526EA05011B
:104740006140C16527EA06016940416623EA070125
:104750007140C16624EA030179404167DDF80080B9
:10476000846FD0F88050D0F88860D0F89070D0F87E
:10477000983094EA0804564095EA0A0597EA090732
:1047800093EA0E035FEAB4345FEAF5655FEA3666E2
:104790005FEA37175FEAB34325EA040159408167AE
:1047A00026EA05016140C0F8801027EA0601694049
:1047B000C0F8881023EA07017140C0F8901024EA7D
:1047C00003017940C0F89810D0F8A460D0F8AC701C
:1047D000D0F8B430D0F8BC40D0F8C45096EA0806FF
:1047E000534097EA0B0794EA090495EA0C055FEA3F
:1047F00036365FEAF7775FEA73035FEA74145FEABD
:10480000753525EA04015940C0F8A41026EA0501CF
:104810006140C0F8AC1027EA06016940C0F8B41046
:1048200023EA07017140C0F8BC1024EA0301794073
:10483000C0F8C410DDF80C900368846805698669C7
:10484000076A93EA0803554094EA0A0496EA0906BF
:1048500097EA0C075FEAB4245FEAB5255FEA76566B
:104860005FEA776726EA05016140816027EA060171
:104870006940016123EA07017140816124EA030173
:10488000794001620599A5438C696B4063400360E0
:10489000049AC56A466BC76B436CC46C95EA0805FD
:1048A000574096EA0A0693EA090394EA0E045FEA7F
:1048B000F5755FEAB6265FEAB7075FEAB3435FEADA
:1048C000B45425EA04015940C16226EA0501614059
:1048D000416327EA06016940C16323EA0701714089
:1048E000416424EA03017940C164076D836D046E5D
:1048F000856E066F97EA0807544093EA0B0395EA22
:10490000090596EA0C065FEAF7575FEAF3735FEA78
:1049100074745FEAF5455FEA367625EA040159408A
:10492000016526EA05016140816527EA06016940C3
:10493000016623EA07017140816624EA0301794098
:104940000167DDF80480C46FD0F88450D0F88C6023
:10495000D0F89470D0F89C3094EA0804564095EA58
:104960000B0597EA090793EA0C035FEAB4345FEAA0
:10497000F5655FEA76665FEA37175FEAF34325EA93
:1049800004015940C16726EA05016140C0F884105E
:1049900027EA06016940C0F88C1023EA070171403C
:1049A000C0F8941024EA03017940C0F89C10D0F8B4
:1049B000A060D0F8A870D0F8B030D0F8B840D0F8E7
:1049C000C05096EA0806534097EA0A0794EA090499
:1049D00095EA0E055FEAF6265FEAF7775FEA73036A
:1049E0005FEA34145FEA353525EA04015940C0F81E
:1049F000A01026EA05016140C0F8A81027EA0601C8
:104A00006940C0F8B01023EA07017140C0F8B8103F
:104A100024EA03017940C0F8C010DDF8089043682B
:104A2000C4684569C669476A93EA0803554094EA31
:104A30000B0496EA090697EA0E075FEAB4245FEAD8
:104A4000F5255FEAB6565FEA776726EA0501614019
:104A5000C16027EA06016940416123EA070171400C
:104A6000C16124EA0301794041620599A543CC69FB
:104A70006B40634051F8204F0591FF2C43607EF45A
:104A800043AE06B0BDE8F09F00000000000000004B
:104A900001F0FF01102A2BDB10F0070F08D010F8EF
:104AA000013B013A8B422DD010F0070F42B3F6D1F3
:104AB000F0B441EA012141EA014122F007047FF00C
:104AC00000070023F0E80256083C85EA010586EA63
:104AD000010685FA47F5A3FA87F586FA47F6A5FA9F
:104AE00087F68EB9EED1F0BC01F0FF0102F00702AB
:104AF00032B110F8013B013A83EA010313B1F8D156
:104B00000020704701387047002D06BF3546033836
:104B1000073815F0010F07D1013015F4807F02BF6F
:104B2000013015F4C03F0130F0BC0138704700BFC0
:104B300053B94AB9002908BF00281CBF4FF0FF3104
:104B40004FF0FF3000F06EB9ADF1080C6DE904CE06
:104B500000F006F8DDF804E0DDE9022304B0704758
:104B60002DE9F047089D04468C46002B40F08380D9
:104B70008A42174647D9B2FA82F242B1C2F1200006
:104B800024FA00F09140974040EA010C94404FEA2B
:104B90001748230CBCFBF8F61FFA87FE08FB16C16A
:104BA00043EA014306FB0EF1994209D9FB1806F1CD
:104BB000FF3080F01981994240F21681023E3B4459
:104BC0005B1AA4B2B3FBF8F008FB103344EA0344C9
:104BD00000FB0EFEA64509D93C1900F1FF3380F019
:104BE0000581A64540F2028102383C4440EA064075
:104BF000A4EB0E0400261DB1D4400023C5E90043F8
:104C00003146BDE8F08702B9FFDEB2FA82F2002A2F
:104C100050D1CB1B4FEA174E1FFA87F80126B3FB82
:104C2000FEFC210C0EFB1C3341EA034108FB0CF394
:104C30008B4207D979180CF1FF3002D28B4200F277
:104C4000E9808446C91AA3B2B1FBFEF00EFB101135
:104C500043EA014408FB00F8A04507D93C1900F1DC
:104C6000FF3302D2A04500F2D9801846A4EB080415
:104C700040EA0C40BFE78B4209D9002D00F0B1801B
:104C80000026C5E9000130463146BDE8F087B3FA99
:104C900083F6002E4AD18B4202D3824200F2B880C2
:104CA000841A61EB030101208C46002DA8D0C5E9D0
:104CB000004CA5E7C2F1200320FA03F6974001FA61
:104CC00002F04FEA174ED9403043030CB1FBFEF619
:104CD0001FFA87F80EFB161143EA014306FB08F1A1
:104CE000994204FA02F409D9FB1806F1FF3C80F05E
:104CF0008D80994240F28A80023E3B445B1A81B229
:104D0000B3FBFEF00EFB103341EA034100FB08F356
:104D10008B4207D9791800F1FF3C73D28B4271D9CD
:104D200002383944CB1A40EA064678E7C6F1200C2F
:104D300003FA06F422FA0CF31C4320FA0CF701FAEA
:104D400006F34FEA144E21FA0CF11F433B0CB1FB62
:104D5000FEF91FFA84F80EFB191143EA014109FB21
:104D600008FA8A4502FA06F200FA06F308D9611831
:104D700009F1FF3048D28A4546D9A9F102092144F8
:104D8000A1EB0A01BFB2B1FBFEF00EFB101147EA26
:104D9000014700FB08F8B84507D9E71900F1FF31D2
:104DA0002ED2B8452CD90238274440EA0940A7EB57
:104DB0000807A0FB02894F45C64649461AD317D0BB
:104DC0005DB1B3EB0E0267EB010707FA0CFCF24092
:104DD0004CEA0202F740C5E9002700263146BDE84B
:104DE000F0872E4628460BE70646E9E61846FDE61C
:104DF0004345E5D2B8EB020E69EB04010138DFE769
:104E00000846D2E760468DE78146B9E7664675E712
:104E100030464AE7ACF1020C394413E702383C440F
:104E200024E700BF704700BF10B582B004468DF87C
:104E300004004FF6FF73012201A9034802F0E3FAD0
:104E4000204602B010BD00BF3C01002070B50C46EA
:104E500016460025B54205DA14F8010BFFF7E4FF0A
:104E60000135F7E7304670BD72B6FEE700B595B084
:104E70003022002108A802F09BFD00230393049335
:104E800005930693079301931E4A116C41F08051DC
:104E90001164126C02F080520192019A02931A4A34
:104EA000116841F480411160126802F4804202925C
:104EB000029A0222089201210B9110210C910E926C
:104EC0000F9310914FF49073119312920423139344
:104ED00008A801F00FFC88B90F2303930223049361
:104EE000002305934FF4A05306930793042103A8CE
:104EF00001F04CFE20B915B05DF804FBFFF7B4FFDC
:104F0000FFF7B2FF00380240007000402DE9F04189
:104F1000ADF51A6D00274FF4886002F039FD0646A2
:104F20004FF4906002F034FD804602F0E3F8FFF7A2
:104F30009DFF00F06DF800F0A9F817E0D4B221460B
:104F40002B4802F0E7FD4FF47A73224629492A489C
:104F500002F059FA284B1B681B6813F0400FF9D078
:104F6000264802F073FE264B00221A80244B1A8832
:104F7000B3F90030002BE1DB7C1CE7B214F0FF0436
:104F8000F4D110A9304600F077F90A2002F0DAFDDA
:104F90001C4802F0BFFD25461F2D05DC715D1A4837
:104FA00002F0B8FD0135F7E70A2002F0CBFD174803
:104FB00002F0B0FD1F2C06DC10AB195D124802F0A8
:104FC000A9FD0134F6E732466946404600F074F91F
:104FD00010AA414608A800F0DDF90A2002F0B2FD4F
:104FE000304602F0DDFC404602F0DAFCBEE700BFCE
:104FF000988A0008800100203C010020BC8A00083B
:105000008C000020C08A0008C88A0008D08A0008E6
:1050100030B589B000240394049405940694079451
:105020000094184B1A6B42F010021A631A6B02F0CC
:1050300010020092009A01941A6B42F080021A63E7
:105040001A6B02F080020192019A02941A6B42F0EC
:1050500001021A631B6B03F001030293029B0A4DCA
:1050600001226021284601F051FF602303930123B0
:1050700004930594069403A9284601F05DFE09B047
:1050800030BD00BF003802400010024008B50D4896
:105090000D4B03604FF4E133436000238360C36032
:1050A00003610C2242618361C36102F07DF928B97A
:1050B00001220649034802F0F6FB08BDFFF7D4FEC3
:1050C000F6E700BF3C01002000100140380100203D
:1050D00010B588B0002303930493059306930793B8
:1050E000026803F1804303F588339A4201D008B087
:1050F00010BD0024019403F594335A6C42F0100261
:105100005A645A6C02F010020192019A02941A6BCE
:1051100042F001021A631B6B03F001030293029B2E
:105120004FF4C0630393022304930594032306936F
:105130000723079303A9064801F0FEFD22462146F6
:10514000252001F059FF252001F08AFFCFE700BF9D
:105150000000024008B502681B4B9A4200D008BD0F
:105160001A4A1388B2F90020002A09DB13F4804F91
:1051700013D0174A12780A2A08D0144B00221A803A
:1051800001221349134802F08EFBE8E76FEA43431C
:105190006FEA53430D4A1380F2E70D4A12780D2A45
:1051A0000DD0C3F30D010C48425401339BB2074AA2
:1051B0001380C72BE4D9134600221A80E0E743F49A
:1051C0008043024A1380DBE7001001408C0000207E
:1051D000380100203C01002080010020FEE7FEE7AE
:1051E000FEE7FEE7FEE770477047704708B501F03D
:1051F0009BFF08BD08B5024801F0BCF908BD00BF1F
:10520000F000002008B5024802F0F2F908BD00BF26
:105210003C01002082B0002100910B4B5A6C42F4FB
:1052200080425A645A6C02F480420092009A0191C2
:105230001A6C42F080521A641B6C03F08053019385
:10524000019B02B0704700BF0038024008B5024918
:10525000FAF7F6FF08BD00BFD88D000810B5044668
:105260000349FBF75DFE03492046FBF781FD10BDB6
:10527000D88A0008D88B000870B506460D4600F0A5
:1052800093FA0023B3F5886F05D203F59C62F45CB2
:10529000AC540133F6E74FF488620023314605F53C
:1052A000126001F0E0F82022002305F5146000F000
:1052B00093F9002070BD0000F0B5A1B005460F467F
:1052C000164620220023684600F086F9202200239B
:1052D0006946684601F0C7F84FF4886200233146FA
:1052E00008A801F0C0F840220023694610A801F088
:1052F000D9F80A2002F026FC224802F00BFC002418
:105300001F2C08DC20AB234413F8801C1E4802F03D
:1053100001FC0134F4E70A2002F014FC1B4802F0FF
:10532000F9FB20243F2C08DC20AB234413F8401C5D
:10533000154802F0EFFB0134F4E718AB324669463A
:10534000284600F0AEFA0A2002F0FCFB104802F0FA
:10535000E1FB00241F2C05DC295D0B4802F0DAFB81
:105360000134F7E74FF490620023294618A801F0B2
:105370007AF84022002310A9384601F074F8002082
:1053800021B0F0BDD88F0008C88A0008E08F00085F
:10539000E88F00082DE9F041ADF5A06D07460E46F7
:1053A000154602F59C6810A800F009FB0A2002F0DF
:1053B000C9FB2E4802F0AEFB00241F2C06D810AB10
:1053C000195D2B4802F0A6FB0134F6E700231F2BE2
:1053D00008D803F5126203F12004A95C10AA115544
:1053E0000133F4E74022002310A9684601F05AF87F
:1053F0000A2002F0A7FB1F4802F08CFB20243F2C60
:1054000006D81DF804101A4802F084FB0134F6E7B0
:1054100008AB424610A920A800F043FA4FF490626E
:1054200020A9304601F082F804460A2002F08AFBE7
:105430002146114802F06EFB4FF490620023314682
:1054400008A801F010F8E3B2202205F514616846BF
:1054500001F07BF8402200236946384601F003F84A
:1054600060420DF5A06DBDE8F08100BFD88F000847
:10547000C88A0008F08F0008F88F000870B48DB05B
:1054800000230B2B0FDC514A52F8232003F10C00B0
:105490004F4951F820104A400CA901EB830141F813
:1054A000302C0133EDE7002308E003F11801484AEE
:1054B00052F82110474A42F823100133072BF4DD3C
:1054C0000B9A0024234611E000210CE0081D0CADCE
:1054D00005EB800050F8306C3E4D55F821007040CF
:1054E00045F8210001310729F0DD0134012C6ADC87
:1054F00000200F28E8DCA3F1C343A3F59103A3F236
:10550000476382F00301194481EAF26200990A4478
:10551000009282F00101194481EA7261019A1144FA
:10552000019181F004021A4482EAF1520299114475
:10553000029181F001021A4482EAF14203990A447D
:10554000039282F00501194481EAF261049A0A4447
:10555000049282F00901194481EA7261059A1144AA
:10556000059181F002021A4482EAF152069911442F
:10557000069181F006021A4482EAF14207990A4430
:10558000079282F00501194481EAF261089A0A44FF
:10559000089282F00301194481EA7261099A114468
:1055A000099181F005021A4482EAF1520A991144E4
:1055B0000A9181F008021A4482EAF1420B990A44E6
:1055C0000B92013095E70DB070BC70479000002041
:1055D00008900008C000002070B5064614461D461D
:1055E00011E0FFF74BFF164B08221A60144A1368AC
:1055F000013B1360134A52F8233006F8013B14F1C3
:10560000FF3445F1FF3554EA050317D00C4B1B68F6
:10561000002BEBD10C4A136801331360002BE0D14F
:10562000536801335360002BDBD1936801339360DF
:10563000002BD6D1D3680133D360D2E770BD00BF51
:10564000E0000020C00000209000002008B500F01D
:105650002AFB08BD70B50646154600F0DDF90023AB
:105660001F2B05DC03F58461EC5C74540133F7E710
:1056700070BD38B50D461446114600F041FA0023BE
:105680001F2B05DCE01890F82004E8540133F7E7FD
:1056900038BD38B50446154600F0BEF9294604F574
:1056A000846000F089FB38BD38B50D4614461146BC
:1056B00000F026FA04F58461284600F0D3FB38BDDB
:1056C00008B500F001FB08BD2DE9F04FC1B002AFF5
:1056D00083467A60ADF5287D02AE00231F2B07DCE0
:1056E000C85C07F1F8021A4402F8EC0C0133F5E744
:1056F0004FF000094FF004084CE087F82CA087F821
:105700002D9034E00234A82303FB08F3023BA342AC
:1057100015D3FF2D1FD8335D621CB25C43EA022310
:10572000C3F30C03B3F5F05FECD809EB49020BEBC4
:10573000422205EB0A2122F811300135E2E707F198
:105740003003009301220023304600F037FE4FF073
:1057500001080024DDE70AF1010ABAF1020F17DCA3
:105760007B68002BC9D087F82C9087F82DA007F113
:105770003005222207F10C01284600F011FE00241A
:10578000009542462346304600F018FE2546C0E705
:1057900009F10109B9F1020F02DC4FF0000ADCE760
:1057A000FC37BD46BDE8F08F2DE9F043ADF5115D46
:1057B00081B007468846402200236846FFF70CFF69
:1057C000402200236946684600F06CFE00226946CC
:1057D0000DF59250FFF778FF4FF000094C460BE0B3
:1057E00009F10105EDB24A4608A910AB03EB4420CC
:1057F00000F08DFC0134A946022CF1DD10A800F068
:1058000074FA0A2002F09EF90026002E01DD002421
:1058100019E00023FF2B07DC03EB062410AA282540
:1058200022F814500133F5E70136EEE709F10105DE
:10583000EDB24A4608A90DF5446303EB442000F09D
:1058400066FC0134A946022CF0DD00240DE004EBD7
:1058500044020DF5925303EB422210A90DF5C863E3
:1058600003EB442000F059FA0134022CEFDD0DF572
:10587000C86000F046FA0DF544620DF5C8610846AF
:1058800000F087FA10A94046FFF7E0FE6A460DF5E2
:10589000C8613846FFF7DEFE0DF5115D01B0BDE8C9
:1058A000F0832DE9F041ADF5405D88B080460C46AF
:1058B0001F4669460DF510502030FFF7DAFE2146ED
:1058C00088A800F053FC0DF51050203000F00DFAC0
:1058D000012269460DF54260FFF7F6FE00242546D9
:1058E0000CE0661CF6B2224639460DF528532033EB
:1058F00003EB452000F00BFC01353446022DF0DDB2
:105900000DF52850203000F0F0F900250BE0661C62
:10591000F6B2224639460DF5F15303EB452000F06F
:10592000F6FB01353446022DF1DD00250FE005EBD5
:1059300045020DF5426303EB42220DF5285120315B
:105940000DF5C46303EB452000F0E7F90135022DA6
:10595000EDDD0DF5C46000F0D4F90DF5F1520DF553
:10596000C461084600F015FA0DF5285220320DF5F5
:10597000105120310DF5846000F0CFF90DF58460F1
:1059800000F0E8FB2246394608A800F0C0FB08AA50
:105990000DF58461084600F0E1FB88AA0DF58461ED
:1059A000084600F0DBFB0DF584620DF5C46140464E
:1059B000FFF76FFE0DF5405D08B0BDE8F08130B532
:1059C000ADF5805D81B0044615460A4680A90DF507
:1059D0002060FFF769FE29460DF58060FFF770FE35
:1059E0000DF5206000F081F90DF520620DF5806164
:1059F000684600F092F9684600F0ACFB80AA694660
:105A0000684600F0AFFB6946204600F0CBFB0DF581
:105A1000805D01B030BD00002DE9F04184B0064644
:105A20008846002762E004EBC50303EB072338F840
:105A3000130000F06BFDC30203F570632F48A0FB59
:105A40000323C3F3CA2304AA02EB440222F8103C46
:105A50000134072CE7DDBDF8002005EB850305EBDD
:105A60004303F254BDF80210581C120A42EAC10264
:105A70003254BDF80420981C490941EA821131547E
:105A8000D91C90087054BDF80600191D920A42EA0C
:105A900040027254BDF808105A1DC00940EA0110B6
:105AA000B054BDF80A20981D090941EAC2113154C9
:105AB000D91D50087054BDF80C1003F10800520AAB
:105AC00042EA81023254BDF80E2003F1090089092F
:105AD00041EA421131540A33D208F25401351F2DE4
:105AE00001DC0024B5E706F5B0760137022F01DCB2
:105AF0000025F4E704B0BDE8F08100BFCDFD4144CE
:105B00004FF0000CBCF1020F00F3CC802DE9F04106
:105B100007E001F5B0710CF1010CBCF1020F00F3CC
:105B2000BF8000261F2EF4DC06EB860206EB420245
:105B30008B5C571CCC5D240204F4E0642343C3EB6C
:105B4000031403EB442303F58063DB0AF5004FEAFB
